{
  "_format": "hh-sol-artifact-1",
  "contractName": "MissionDAOMetaData",
  "sourceName": "contracts/MissionDAOMetaData.sol",
  "abi": [
    {
      "inputs": [
        {
          "internalType": "address",
          "name": "_nftAddress",
          "type": "address"
        },
        {
          "internalType": "uint256",
          "name": "_lastRevealedId",
          "type": "uint256"
        }
      ],
      "stateMutability": "nonpayable",
      "type": "constructor"
    },
    {
      "anonymous": false,
      "inputs": [
        {
          "indexed": false,
          "internalType": "address",
          "name": "_admin",
          "type": "address"
        },
        {
          "indexed": false,
          "internalType": "bool",
          "name": "_enabled",
          "type": "bool"
        }
      ],
      "name": "AdminAccessSet",
      "type": "event"
    },
    {
      "anonymous": false,
      "inputs": [
        {
          "indexed": true,
          "internalType": "address",
          "name": "previousOwner",
          "type": "address"
        },
        {
          "indexed": true,
          "internalType": "address",
          "name": "newOwner",
          "type": "address"
        }
      ],
      "name": "OwnershipTransferred",
      "type": "event"
    },
    {
      "anonymous": false,
      "inputs": [
        {
          "indexed": false,
          "internalType": "uint256",
          "name": "_nftId",
          "type": "uint256"
        }
      ],
      "name": "Revealed",
      "type": "event"
    },
    {
      "inputs": [],
      "name": "NFT",
      "outputs": [
        {
          "internalType": "contract IMissionDAONFT",
          "name": "",
          "type": "address"
        }
      ],
      "stateMutability": "view",
      "type": "function"
    },
    {
      "inputs": [
        {
          "internalType": "address",
          "name": "admin",
          "type": "address"
        }
      ],
      "name": "isAdmin",
      "outputs": [
        {
          "internalType": "bool",
          "name": "",
          "type": "bool"
        }
      ],
      "stateMutability": "view",
      "type": "function"
    },
    {
      "inputs": [],
      "name": "isEnabled",
      "outputs": [
        {
          "internalType": "bool",
          "name": "",
          "type": "bool"
        }
      ],
      "stateMutability": "view",
      "type": "function"
    },
    {
      "inputs": [],
      "name": "owner",
      "outputs": [
        {
          "internalType": "address",
          "name": "",
          "type": "address"
        }
      ],
      "stateMutability": "view",
      "type": "function"
    },
    {
      "inputs": [],
      "name": "renounceOwnership",
      "outputs": [],
      "stateMutability": "nonpayable",
      "type": "function"
    },
    {
      "inputs": [
        {
          "internalType": "uint256",
          "name": "tokenId",
          "type": "uint256"
        }
      ],
      "name": "reveal",
      "outputs": [],
      "stateMutability": "nonpayable",
      "type": "function"
    },
    {
      "inputs": [
        {
          "internalType": "address",
          "name": "admin",
          "type": "address"
        },
        {
          "internalType": "bool",
          "name": "enabled",
          "type": "bool"
        }
      ],
      "name": "setAdmin",
      "outputs": [],
      "stateMutability": "nonpayable",
      "type": "function"
    },
    {
      "inputs": [
        {
          "internalType": "string",
          "name": "_baseURI",
          "type": "string"
        }
      ],
      "name": "setBaseURI",
      "outputs": [],
      "stateMutability": "nonpayable",
      "type": "function"
    },
    {
      "inputs": [
        {
          "internalType": "bool",
          "name": "_isEnabled",
          "type": "bool"
        }
      ],
      "name": "setEnabled",
      "outputs": [],
      "stateMutability": "nonpayable",
      "type": "function"
    },
    {
      "inputs": [
        {
          "internalType": "address",
          "name": "newOwner",
          "type": "address"
        }
      ],
      "name": "transferOwnership",
      "outputs": [],
      "stateMutability": "nonpayable",
      "type": "function"
    }
  ],
  "bytecode": "0x608060405234801561001057600080fd5b50604051620010e0380380620010e08339810160408190526100319161010e565b61004161003c6100ab565b6100af565b61005d826001600160a01b03166100ff60201b6105e31760201c565b6100825760405162461bcd60e51b815260040161007990610146565b60405180910390fd5b600280546001600160a01b0319166001600160a01b03939093169290921790915560035561017d565b3390565b600080546001600160a01b038381166001600160a01b0319831681178455604051919092169283917f8be0079c531659141344cd1fd0a4f28419497f9722a3daafe3b4186f6b6457e09190a35050565b6001600160a01b03163b151590565b60008060408385031215610120578182fd5b82516001600160a01b0381168114610136578283fd5b6020939093015192949293505050565b6020808252601e908201527f5f6e667441646472657373206d757374206265206120636f6e74726163740000604082015260600190565b610f53806200018d6000396000f3fe608060405234801561001057600080fd5b506004361061009e5760003560e01c8063715018a611610066578063715018a61461010f5780637c0b8de2146101175780638da5cb5b1461012c578063c2ca0ac514610134578063f2fde38b146101475761009e565b806324d7806c146100a3578063328d8f72146100cc5780634b0bddd2146100e157806355f804b3146100f45780636aa633b614610107575b600080fd5b6100b66100b13660046108e1565b61015a565b6040516100c39190610b6f565b60405180910390f35b6100df6100da366004610934565b61017c565b005b6100df6100ef366004610902565b6101d7565b6100df61010236600461094e565b610278565b6100b66102ce565b6100df6102d7565b61011f610322565b6040516100c39190610b40565b61011f610331565b6100df610142366004610a3a565b610340565b6100df6101553660046108e1565b610572565b6001600160a01b03811660009081526001602052604090205460ff165b919050565b6101846105f2565b6001600160a01b0316610195610331565b6001600160a01b0316146101c45760405162461bcd60e51b81526004016101bb90610c3a565b60405180910390fd5b6004805460ff1916911515919091179055565b6101df6105f2565b6001600160a01b03166101f0610331565b6001600160a01b0316146102165760405162461bcd60e51b81526004016101bb90610c3a565b6001600160a01b03821660009081526001602052604090819020805460ff1916831515179055517fe529461c8529abc0e0fe7c5ee361f74fe22e0b7574df1fc0b7558a282091fb789061026c9084908490610b54565b60405180910390a15050565b6102806105f2565b6001600160a01b0316610291610331565b6001600160a01b0316146102b75760405162461bcd60e51b81526004016101bb90610c3a565b80516102ca906005906020840190610821565b5050565b60045460ff1681565b6102df6105f2565b6001600160a01b03166102f0610331565b6001600160a01b0316146103165760405162461bcd60e51b81526004016101bb90610c3a565b61032060006105f6565b565b6002546001600160a01b031681565b6000546001600160a01b031690565b60045460ff166103625760405162461bcd60e51b81526004016101bb90610c03565b6001600061036e6105f2565b6001600160a01b0316815260208101919091526040016000205460ff16806103b55750610399610331565b6001600160a01b03166103aa6105f2565b6001600160a01b0316145b6103d15760405162461bcd60e51b81526004016101bb90610c6f565b603381106103f15760405162461bcd60e51b81526004016101bb90610ce7565b60035481116104125760405162461bcd60e51b81526004016101bb90610cb0565b60025460405163c87b56dd60e01b81526060916001600160a01b03169063c87b56dd90610443908590600401610d11565b600060405180830381600087803b15801561045d57600080fd5b505af1158015610471573d6000803e3d6000fd5b505050506040513d6000823e601f3d908101601f1916820160405261049991908101906109c7565b90506104bd81604051806080016040528060458152602001610ed960459139610646565b6104d95760405162461bcd60e51b81526004016101bb90610bc0565b6002546001600160a01b031663862440e2836104f48161069f565b6040518363ffffffff1660e01b8152600401610511929190610d1a565b600060405180830381600087803b15801561052b57600080fd5b505af115801561053f573d6000803e3d6000fd5b505050507f15120e52505e619cbf6c2af910d5cf7f9ee1befa55801b078c33e93880b2d6098260405161026c9190610d11565b61057a6105f2565b6001600160a01b031661058b610331565b6001600160a01b0316146105b15760405162461bcd60e51b81526004016101bb90610c3a565b6001600160a01b0381166105d75760405162461bcd60e51b81526004016101bb90610b7a565b6105e0816105f6565b50565b6001600160a01b03163b151590565b3390565b600080546001600160a01b038381166001600160a01b0319831681178455604051919092169283917f8be0079c531659141344cd1fd0a4f28419497f9722a3daafe3b4186f6b6457e09190a35050565b6000816040516020016106599190610a7f565b60405160208183030381529060405280519060200120836040516020016106809190610a7f565b6040516020818303038152906040528051906020012014905092915050565b60606000600580546106b090610e2c565b9050116106cc57604051806020016040528060008152506106f8565b60056106d7836106fe565b6040516020016106e8929190610a9b565b6040516020818303038152906040525b92915050565b60608161072357506040805180820190915260018152600360fc1b6020820152610177565b8160005b811561074d578061073781610e67565b91506107469050600a83610dd1565b9150610727565b60008167ffffffffffffffff81111561077657634e487b7160e01b600052604160045260246000fd5b6040519080825280601f01601f1916602001820160405280156107a0576020820181803683370190505b5090505b8415610819576107b5600183610de5565b91506107c2600a86610e82565b6107cd906030610db9565b60f81b8183815181106107f057634e487b7160e01b600052603260045260246000fd5b60200101906001600160f81b031916908160001a905350610812600a86610dd1565b94506107a4565b949350505050565b82805461082d90610e2c565b90600052602060002090601f01602090048101928261084f5760008555610895565b82601f1061086857805160ff1916838001178555610895565b82800160010185558215610895579182015b8281111561089557825182559160200191906001019061087a565b506108a19291506108a5565b5090565b5b808211156108a157600081556001016108a6565b80356001600160a01b038116811461017757600080fd5b8035801515811461017757600080fd5b6000602082840312156108f2578081fd5b6108fb826108ba565b9392505050565b60008060408385031215610914578081fd5b61091d836108ba565b915061092b602084016108d1565b90509250929050565b600060208284031215610945578081fd5b6108fb826108d1565b60006020828403121561095f578081fd5b813567ffffffffffffffff811115610975578182fd5b8201601f81018413610985578182fd5b803561099861099382610d85565b610d54565b8181528560208385010111156109ac578384fd5b81602084016020830137908101602001929092525092915050565b6000602082840312156109d8578081fd5b815167ffffffffffffffff8111156109ee578182fd5b8201601f810184136109fe578182fd5b8051610a0c61099382610d85565b818152856020838501011115610a20578384fd5b610a31826020830160208601610dfc565b95945050505050565b600060208284031215610a4b578081fd5b5035919050565b60008151610a64818560208601610dfc565b9290920192915050565b64173539b7b760d91b815260050190565b60008251610a91818460208701610dfc565b9190910192915050565b8254600090819060028104600180831680610ab757607f831692505b6020808410821415610ad757634e487b7160e01b87526022600452602487fd5b818015610aeb5760018114610afc57610b28565b60ff19861689528489019650610b28565b610b058b610dad565b885b86811015610b205781548b820152908501908301610b07565b505084890196505b505050505050610a31610b3b8286610a52565b610a6e565b6001600160a01b0391909116815260200190565b6001600160a01b039290921682521515602082015260400190565b901515815260200190565b60208082526026908201527f4f776e61626c653a206e6577206f776e657220697320746865207a65726f206160408201526564647265737360d01b606082015260800190565b60208082526023908201527f4f6e6c79207072652d7665616c206d696e74656420746f6b656e7320616c6c6f6040820152621dd95960ea1b606082015260800190565b60208082526017908201527f436f6e7472616374206973206e6f7420656e61626c6564000000000000000000604082015260600190565b6020808252818101527f4f776e61626c653a2063616c6c6572206973206e6f7420746865206f776e6572604082015260600190565b60208082526021908201527f43616c6c657220646f6573206e6f7420686176652041646d696e2041636365736040820152607360f81b606082015260800190565b6020808252601d908201527f4f6e6c7920706f73742073616c6520746f6b656e7320616c6c6f776564000000604082015260600190565b60208082526010908201526f125b9d985b1a59081d1bdad95b88125960821b604082015260600190565b90815260200190565b6000838252604060208301528251806040840152610d3f816060850160208701610dfc565b601f01601f1916919091016060019392505050565b604051601f8201601f1916810167ffffffffffffffff81118282101715610d7d57610d7d610ec2565b604052919050565b600067ffffffffffffffff821115610d9f57610d9f610ec2565b50601f01601f191660200190565b60009081526020902090565b60008219821115610dcc57610dcc610e96565b500190565b600082610de057610de0610eac565b500490565b600082821015610df757610df7610e96565b500390565b60005b83811015610e17578181015183820152602001610dff565b83811115610e26576000848401525b50505050565b600281046001821680610e4057607f821691505b60208210811415610e6157634e487b7160e01b600052602260045260246000fd5b50919050565b6000600019821415610e7b57610e7b610e96565b5060010190565b600082610e9157610e91610eac565b500690565b634e487b7160e01b600052601160045260246000fd5b634e487b7160e01b600052601260045260246000fd5b634e487b7160e01b600052604160045260246000fdfe697066733a2f2f516d6333345374464e3842677272323952524a6e61757776325544645a6a32484662694d7157316b6e62715672352f7072652d72657665616c2e6a736f6ea2646970667358221220e78737ca6ca9340975227d1bbba3f47ac14ad04f1d26e2939a243439998da30a64736f6c63430008010033",
  "linkReferences": {},
  "deployedLinkReferences": {}
}